:100000002EC448C447C446C445C444C443C4CFC630
:1000100041C440C43FC43EC43DC444C669C63AC49A
:1000200039C438C437C436C4B8C6ECC6F0C6F6C640
:1000300005C709C713C73DC74AC702040810010214
:100040000201010201000002100408402002020126
:10005000010100000080805F8080808003000380B9
:1000600080147F147F14242A7F2A122313086462C9
:10007000364956205005038080801C2241808041F3
:10008000221C808022146B142208083E080850307D
:100090008080800808080880606080808060100888
:1000A00004033E41413E80427F4080806251494688
:1000B0008022414936801814127F802745453980B7
:1000C0003C4A49318001710D03803649493680062A
:1000D00049291E80363680808056368080800814FC
:1000E0002241801414141480412214088002510902
:1000F0000680324979413E7E09097E807F49493632
:10010000803E414122807F41413E807F494941807C
:100110007F090901803E49493A807F08087F804174
:100120007F4180802040403F807F081463807F4073
:100130004040807F020C027F7F06187F803E414155
:100140003E807F090906803E41215E807F09196655
:1001500080264949328001017F01013F40403F80B4
:1001600007186018073F4038403F631408146303C2
:100170000478040361594543807F41418080030432
:1001800008106041417F8080020102808040404031
:100190004080030480808020545478807F48483019
:1001A0008038444428803844447F80385454488000
:1001B000047E05018048545438807F080870807A96
:1001C0008080808020403A80807F08146280417F58
:1001D0004080807C047804787C040478803844442F
:1001E00038807C242418801824247C80780404809F
:1001F000804854542480043F4444803C40407C80E8
:100200000C3040308C3C4030403C44281028444C5A
:1002100050503C8064544C448008364180807F803C
:100220008080804136088080080408100880808023
:1002300080801C2A4949221F047F4040201210124E
:1002400020102220221021545479807914147980AE
:10025000394444398039444439803D40407D803DB3
:1002600040403D807E25251A806C1A6F1A6C7D5A9D
:100270001E5A7D4E7B0F7B4E7C3A7E3A7C1C762E3E
:10028000761C1E347C341E0C1224120C081C3E7F7B
:10029000807F3E1C0880303F01627E303F028080BC
:1002A0001E3D777331607E7B7E60205F2380807E81
:1002B0007A7A7F8003457945031028242810081492
:1002C0002A1408000000000036360836361E143C9A
:1002D000287844241D244442241D620108651C2200
:1002E0004146241D244C08443D44084C241D24460A
:1002F00001621D620142241D24427C4657467C7FD8
:100300002A2A7F802A7F417F2A0A0055000A304826
:100310004D33070629792906081C2A080808082AE7
:100320001C08FC0797076E075C070107F106CD065E
:10033000B806AD060206A20588052305FA04A9043D
:100340006C040704D403B50396036D034E034040C9
:1003500058646864687048444C4848484848444277
:10036000714952646870705840404040FF1C222E12
:100370002A1C1C222A2E1C1C222A2A1C1C222A3A35
:100380001C1C223A2A1C1C322A2A1C1C2A2A2A1C1F
:100390001C262A2A1CFF7F7F7F7F7F1C1C1C1C1CA5
:1003A00008080808080808080808000808080000E5
:1003B00000080000FF1C3E773E1C3E7763773E77C7
:1003C00063416377634108416341081C0841081C8D
:1003D0003E1C08FF404041404040404340404040B8
:1003E000454040404049404040405140404040210D
:1003F00040404040514040404841484048404140D2
:10040000484040414040FF00027D000000017C0266
:100410000000007A0000000872040000086010006C
:1004200000106800000020401000000020000000C4
:1004300000000000000000000000000000000000BC
:10044000300000007C543800793D243D797B3F1614
:100450003F7B7E7C187C7E7C0810087C700810082E
:100460007060082010601040002000FF3F67642487
:100470006666246F69693F01003C64662767663CD5
:100480000000213F69692F29292F69693F21000058
:10049000203E626223232362623E2000003C647C93
:1004A000243C243C247C643CFF403C433C40407C56
:1004B000437C40403C433C40407C437C40403C4388
:1004C0003C40407C437C40205E215E20106F106FDA
:1004D000100877087708047B047B04027502750214
:1004E0000168016801205020502040102000402069
:1004F000004000404000400000FF4040404040407D
:10050000605048444464544C44446C546C44446CBF
:10051000546C7C446C556E7C446E556E7C7C6E5580
:100520006E7CFF404009010000454100000301408E
:1005300040000501404000094140000050410100D9
:1005400000604101000040510100000041510000E5
:100550000000414900000041410800004045010001
:1005600000054140000301404001050040400009F2
:100570000140400010014140002041410000404145
:1005800041000040410100FF205050200030484809
:100590003000060909060001020201000001010005
:1005A00000FF03000000000300000000070000003F
:1005B00000060200000005060000000C0600000016
:1005C000080E0000000A0C040000080A0C000004D9
:1005D000180C000008101C0000001418080000107F
:1005E00014180000083018000010203800000028FF
:1005F00030100000202830000000000000002028FB
:1006000030FF000007000000000E0000000808088E
:100610000010101000002020200000404343000084
:10062000404646000040404C0C00404040181840F6
:1006300040406060000000202040404060600001B9
:1006400007444000020E48400018084C4030101883
:100650004040602030404060273440407E30304091
:10066000407E313340407E323640407E303644401A
:100670007E30304C487E303050587E303060705E76
:10068000101040507E303060707C202040607C2113
:100690002744607C222E48607C38284C607C3B2BB1
:1006A0004C607C3E2E4C607C3F2F4D60FF552A55A0
:1006B0002A552A552A552AFF10101010100810101C
:1006C0000F7010100808101010101010FF002620D6
:1006D00026000026202600002620260000262024B2
:1006E00000002620260000262026001026202610A6
:1006F000FF00001C0000003E223E007F4141417F80
:10070000FF010000000002000100000400020000E0
:100710000801040001100208000220041100044135
:1007200008220008421044011045204802204A4097
:100730005004415440600842684160114470426076
:10074000224870446045507048604A507050605470
:100750006070606068607060607060FF08442810BE
:1007600008040204085030100804040201FF0100CC
:1007700000000002020100000609090600003048DE
:100780004830002050502000304848300000060912
:10079000090000000102FF785C6878717C38747C85
:1007A0007A78506262787C606170687A60307874C0
:1007B0007079705269607C687061506670782068EA
:1007C00071607250747970626872703061746178AF
:1007D00050707A74314068441068703460284A6000
:1007E00058606070386618607078421958647029D3
:1007F00070703A7854707051786A70FF142A4949C1
:100800003E001C2A493E003E493E087F2A1C08083B
:10081000221C0808081C0008080800080808080826
:100820000808080008080800000808000000080080
:10083000000000000000000C0000000C1200000C82
:100840001224000C1224120C1224120CFF321E125D
:100850000B070503020001020305080D1500112412
:100860001FBECFE5D1E0DEBFCDBF10E0A0E6B0E017
:10087000E8EBFFE002C005900D92A636B107D9F76C
:1008800011E0A6E6B0E001C01D92A933B107E1F77F
:100890004FD390C3B5CBCF93DF93CDB7DEB7C35063
:1008A000CDBF809132018F5F80933201853010F08F
:1008B0001092320120913201E0913101F0E0E759CC
:1008C000FF4FE20FF11D308119821A821B8280E0F6
:1008D00090E030FF11C0FC01EF5BFF4F4491FC0141
:1008E000E65CFF4FE491A1E0B0E0AC0FBD1FA40FA8
:1008F000B11D4C914E2B4C93369501968730910546
:1009000041F780E090E0281789F0FC01E35BFF4F9E
:100910003491FC01E85BFF4FE491A1E0B0E0AC0F43
:10092000BD1FA30FB11D3C913E2B3C93019685301A
:10093000910549F7998183E098278A812EE78227DC
:100940008A838B812EE182278B838BB38C7F892BCB
:100950008BBB88B381789A81892B88BB82B3817ED7
:100960009B81892B82BBCD5FCDBFDF91CF91089555
:10097000F09133018F2F8F704F2F50E0BA016071CB
:100980007070E0913101F4FF02C0E81B01C0E80F74
:10099000A09134018E2F90E004962A2F30E0821728
:1009A0009307F4F080913601882321F081508093E1
:1009B000360114C0809135018093360145FF05C092
:1009C00080E18F278093330109C06115710521F003
:1009D000A550A093310102C01092310181E0089529
:1009E000E093310180E008958F706370613019F0F9
:1009F0004093360102C0109236016295682B6093D5
:100A00003301409335010895109231011092340161
:100A10001092690010926A0010926B0010926C00A4
:100A200010926D000895F0DF10923301109235019D
:100A30000895209134010BC0FC0134913F3F49F0EF
:100A40000196E22FF0E0E759FF4F30832F5F283CFB
:100A500098F320933401089590913401983C40F428
:100A6000E92FF0E0E759FF4F80839F5F90933401B7
:100A700008958F3D49F0843C61F0863D79F08C3DCE
:100A800079F0843E79F002C08AE811C0863F61F0B7
:100A900002C085E80CC08C3F49F009C087E807C058
:100AA00089E805C084E803C086E801C088E8805270
:100AB000813910F5E82FF0E0CF01880F991F880FDA
:100AC000991FEE5AFF4FE80FF91F8091340195E00E
:100AD00001C0F9019F012F5F3F4FE491E7FD0AC07C
:100AE000883C30F4A82FB0E0A759BF4FEC938F5F3C
:100AF000915079F780933401089583E08ABB8EE7A3
:100B000087BB8EE181BB8BB38C6F8BBB88B3816855
:100B100088BB82B3816E82BB10BE85E083BF84E058
:100B200086BF87E28CBF89B7856089BF87E689B9B0
:100B300012B880E98AB986E083B90895CF93C82FA7
:100B400083FF02C085E001C081E06C2F661F66272D
:100B5000661F660FEC2FE295E770F0E0EB5AF74F57
:100B6000449142DFC770EC2FF0E0E35BF74FE49174
:100B7000E0936300CF910895EF92FF920F931F933C
:100B8000CF93DF930F92CDB7DEB77C01FDD1D6DFD7
:100B90003BDF87010E5F1F4FC7010196F5D1982FEC
:100BA00042C078019E37A1F40894E11CF11CC801F1
:100BB000EBD18E3761F1E82FE154E63140F5F0E0FA
:100BC000EE0FFF1FEE5DFC4F8591949132DF1FC049
:100BD0009F3F81F40894E11CF11CC801D5D107C0E6
:100BE0003BDF87010F5F1F4FC701CED178018F3FD9
:100BF000B9F70DC09E3549F40894E11CF11CC801F9
:100C0000C3D1982F8E3509F0915C892F32DF87018F
:100C10000F5F1F4FC701B8D1982F882321F080E0C4
:100C200099831ADF9981992309F0BBCFC801ACD110
:100C3000882311F400E010E0C8010F90DF91CF91FC
:100C40001F910F91FF90EF900895DEDE8FEF94E3F8
:100C5000ACE081509040A040E1F700C0000080E18E
:100C60008ABF90E495B98BBF85B7806585BF85B78E
:100C7000806285BF889585B78F7D85BF1BBE83E861
:100C8000F8DE8FE79AE1A6E081509040A040E1F7BE
:100C900000C0000080E090E06FDF90933801809307
:100CA000370108951F920F920FB60F9211242F93C0
:100CB0003F934F935F936F937F938F939F93AF93E4
:100CC000BF93EF93FF9386B78C5F86BFE4DDFF9100
:100CD000EF91BF91AF919F918F917F916F915F91B4
:100CE0004F913F912F910F900FBE0F901F9018952D
:100CF0001F920F920FB60F9211242F933F934F9391
:100D00005F936F937F938F939F93AF93BF93EF9373
:100D1000FF938CB7895D8CBF80916400882321F09C
:100D200081508093640005C08091630080936400CB
:100D30001FDE80B386FF08C08091620080FF1CC068
:100D4000809162008E7712C08091620080FD05C0A4
:100D500081E08093620084E60DC080916200813062
:100D600059F480916600882321F483E08093620027
:100D700003C0815080936600FF91EF91BF91AF91C6
:100D80009F918F917F916F915F914F913F912F91A3
:100D90000F900FBE0F901F9018951F920F920FB6D5
:100DA0000F9211240F900FBE0F901F9018951F9255
:100DB0000F920FB60F9211242F933F934F935F938F
:100DC0006F937F938F939F93AF93BF93CF93EF9343
:100DD000FF935C999BC0CCB1CB3119F482E0809336
:100DE000670080916700853018F00EDE8C2F41DEA1
:100DF000E0916700F0E0E830F10508F087C0EB5EB5
:100E0000FF4F0994C83409F081C081E075C0CC342B
:100E100009F471C0C43479F483E06EC080E090E0DE
:100E20009093380180933701909361008093600024
:100E3000EBDD81E81EDE1092670068C0E5DD8C2FD7
:100E40007DDE84E059C0CD3011F0CA3011F4DCDD14
:100E50005DC08C2F0EDE80E0FFDD58C0CE3511F472
:100E600086E04AC0C43221F41092680087E044C092
:100E7000CD3011F0CA3069F480916000909161002A
:100E80009C012F5F3F4F309361002093600060E032
:100E90000EC0C032D8F12091600030916100C901CC
:100EA00001969093610080936000C9016C2F74D00B
:100EB0002DC02091600030916100C901019690938E
:100EC0006100809360006C2F615CC90113C0C13464
:100ED00008F0C750C053C03190F0809160009091ED
:100EE00061009C012F5F3F4F3093610020936000B1
:100EF0006091680051D085E08093670007C08091C1
:100F000068008295807F8C0F80936800FF91EF913D
:100F1000CF91BF91AF919F918F917F916F915F9191
:100F20004F913F912F910F900FBE0F901F901895EA
:100F3000E4DD79DD789489DE8091620080688093B9
:100F4000620080916200882371F480913701909152
:100F5000380112DE9093380180933701809162004E
:100F600080688093620080916200833051F74CDD8D
:100F700082E87FDD8FE79AE1A6E081509040A040B3
:100F8000E1F700C00000D7CFE199FECF1FBA8EBBBA
:100F9000E09A99278DB30895262FE199FECF1CBAC8
:100FA0001FBA8EBB2DBB0FB6F894E29AE19A0FBE22
:080FB00001960895F894FFCFAB
:060FB800000080080100AA
:00000001FF
