S01000004861636B6C6163652E7372656308
S11300001FC439C438C437C436C435C434C4ECC678
S113001032C431C430C42FC42EC462C687C62BC4B4
S11300202AC429C428C427C4D5C609C70CC712C703
S113003021C724C730C736C749C756C773C7020488
S1130040081001020201010201000002100408402C
S113005020020201010100000080805F8080808016
S11300600300038080147F147F14242A7F2A122320
S113007013086462364956205005038080801C2290
S113008041808041221C808022146B142208083E87
S113009008085030808080080808088060608080EC
S11300A08060100804033E41413E80427F408080CE
S11300B0625149468022414936801814127F8027B4
S11300C0454539803C4A49318001710D03803649E8
S11300D04936800649291E8036368080805636800F
S11300E080800814224180141414148041221408BE
S11300F0800251090680324979413E7E09097E8099
S11301007F494936803E414122807F41413E807F84
S1130110494941807F090901803E49493A807F0865
S1130120087F80417F4180802040403F807F0814C9
S113013063807F404040807F020C027F7F06187FEF
S1130140803E41413E807F090906803E41215E8018
S11301507F09196680264949328001017F01013FE8
S113016040403F8007186018073F4038403F631401
S1130170081463030478040361594543807F4141B3
S11301808080030408106041417F80800201028066
S11301908040404040800304808080205454788014
S11301A07F4848308038444428803844447F80382D
S11301B054544880047E05018048545438807F0894
S11301C00870807A8080808020403A80807F081484
S11301D06280417F4080807C047804787C040478C9
S11301E08038444438807C242418801824247C805B
S11301F078040480804854542480043F4444803C60
S113020040407C800C3040308C3C4030403C4428A2
S11302101028444C50503C8064544C44800836416F
S113022080807F80808080413608808008040810A8
S11302300880808080801C2A4949221F047F404016
S11302402012101220102220221021545479807977
S113025014147980394444398039444439803D4008
S1130260407D803D40403D807E25251A806C1A6F7C
S11302701A6C7D5A1E5A7D4E7B0F7B4E7C3A7E3A19
S11302807C1C762E761C1E347C341E0C1224120C1C
S1130290081C3E7F807F3E1C0880303F01627E3018
S11302A03F0280801E3D777331607E7B7E60205FDD
S11302B02380807E7A7A7F80034579450310282441
S11302C0281008142A1408000000000036360836E6
S11302D0361E143C287844241D244442241D620103
S11302E008651C224146241D244C08443D44084C06
S11302F0241D244601621D620142241D24427C46C1
S113030057467C7F2A2A7F802A7F417F2A0A00550C
S1130310000A30484D33070629792906081C2A08A3
S11303200808082A1C08DF077A0751073F07E40674
S1130330D406B0069B069006E50585056B05060503
S1130340DD048C044F04EA03B703980379035003D4
S11303501C222E2A1C1C222A2E1C1C222A2A1C1C6B
S1130360222A3A1C1C223A2A1C1C322A2A1C1C2A25
S11303702A2A1C1C262A2A1CFF7F7F7F7F7F1C1CA5
S11303801C1C1C08080808080808080808000808B5
S113039008000000080000FF1C3E773E1C3E776307
S11303A0773E7763416377634108416341081C08E2
S11303B041081C3E1C08FF4040414040404043402F
S11303C0404040454040404049404040405140400A
S11303D0404021404040405140404048414840480E
S11303E0404140484040414040FF00027D00000041
S11303F0017C020000007A0000000872040000087A
S11304006010000010680000002040100000002070
S113041000000000000000000000000000000000D8
S1130420000000300000007C543800793D243D7900
S11304307B3F163F7B7E7C187C7E7C0810087C709A
S11304400810087060082010601040002000FF3F72
S11304506764246666246F69693F01003C6466270B
S113046067663C0000213F69692F29292F69693F8C
S1130470210000203E626223232362623E200000AA
S11304803C647C243C243C247C643CFF403C433C52
S113049040407C437C40403C433C40407C437C4067
S11304A0403C433C40407C437C40205E215E201025
S11304B06F106F100877087708047B047B040275BB
S11304C0027502016801680120502050204010206C
S11304D0004020004000404000400000FF404040F9
S11304E0404040605048444464544C44446C546C10
S11304F044446C546C7C446C556E7C446E556E7CE8
S11305007C6E556E7CFF40400901000045410000AF
S113051003014040000501404000094140000050F3
S11305204101000060410100004051010000004110
S11305305100000000414900000041410800004012
S11305404501000005414000030140400105004011
S11305504000090140400010014140002041410099
S113056000404141000040410100FF205050200064
S11305703048483000060909060001020201000063
S113058001010000FF030000000003000000000759
S113059000000000060200000005060000000C0632
S11305A0000000080E0000000A0C040000080A0CF9
S11305B0000004180C000008101C000000141808A7
S11305C00000101418000008301800001020380033
S11305D00000283010000020283000000000000037
S11305E000202830FF000007000000000E0000007B
S11305F008080800101010000020202000004043CC
S1130600430000404646000040404C0C004040403F
S113061018184040406060000000202040404060C6
S113062060000107444000020E48400018084C4096
S11306303010184040602030404060273440407EF5
S1130640303040407E313340407E323640407E3050
S11306503644407E30304C487E303050587E303006
S113066060705E101040507E303060707C202040FE
S1130670607C212744607C222E48607C38284C60B2
S11306807C3B2B4C607C3E2E4C607C3F2F4D60FFAE
S1130690552A552A552A552A552AFF10101010108C
S11306A00810100F7010100808101010101010FF10
S11306B000262026000026202600002620260000F2
S11306C026202400002620260000262026001026AE
S11306D0202610FF00001C0000003E223E007F4147
S11306E041417FFF010000000002000100000400FE
S11306F00200000801040001100208000220041195
S11307000004410822000842104401104520480218
S1130710204A4050044154406008426841601144FA
S1130720704260224870446045507048604A50707E
S11307305060546070606068607060607060FF0852
S1130740442810080402040850301008040402016C
S1130750FF01000000000202010000060909060072
S113076000304848300020505020003048483000C5
S1130770000609090000000102FF785C6878717CBA
S113078038747C7A78506262787C606170687A60D0
S11307903078747079705269607C687061506670EA
S11307A07820687160725074797062687270306118
S11307B074617850707A74314068441068703460A1
S11307C0284A60586060703866186070784219581A
S11307D064702970703A7854707051786A70FF149C
S11307E02A49493E001C2A493E003E493E087F2AC8
S11307F01C0808221C0808081C000808080008082F
S1130800080808080808000808080000080800008C
S1130810000800000000000000000C0000000C12A2
S113082000000C1224000C1224120C1224120CFFCF
S1130830321E120B070503020001020305080D1501
S113084011241FBECFE5D1E0DEBFCDBF10E0A0E68E
S1130850B0E0EEEBFFE002C005900D92A836B107C0
S1130860D9F721E0A8E6B0E001C01D92A933B20790
S1130870E1F70AD2A2C3C4CBCF93DF9300D01F9277
S1130880CDB7DEB7809134018F5F853018F4809343
S1130890340102C01092340140913401E0913301DB
S11308A0F0E0E559FF4FE40FF11D208119821A820F
S11308B01B8280E090E020FF11C0FC01EB5BFF4F46
S11308C03491FC01E25CFF4FE491A1E0B0E0AC0F95
S11308D0BD1FA30FB11D3C913E2B3C932695019661
S11308E08730910541F780E090E0481789F0FC01DA
S11308F0EF5AFF4F2491FC01E45BFF4FE491A1E028
S1130900B0E0AC0FBD1FA20FB11D2C912E2B2C9368
S113091001968530910549F78BB38C7F9981892B9A
S11309208BBB88B381789A81892B88BB82B3817E03
S11309309B81892B82BB0F900F900F90DF91CF91F9
S1130940089540913501842F8F7050913301742F95
S1130950707144FF02C0581B01C0580F60913601EA
S1130960852F90E00496262F30E082179307ECF051
S113097080913801882321F08150809338010AC086
S1130980809137018093380145FF06C080E18427B8
S11309908093350181E00895772321F065506093B9
S11309A03301F8CF10923301F5CF5093330180E037
S11309B008958F706370613019F04093380102C05C
S11309C0109238016295682B60933501409337018A
S11309D00895109233011092360110926B00109218
S11309E06C0010926D0010926E0010926F000895CA
S11309F0F0DF1092350110923701089520913601ED
S1130A000EC0FC010196E491EF3F19F420933601E6
S1130A100895A22FB0E0A559BF4FEC932F5F283C57
S1130A2080F3F4CF90913601983C40F4E92FF0E044
S1130A30E559FF4F80839F5F9093360108958F3D62
S1130A4049F0843C61F0863D79F08C3D79F0843E38
S1130A5079F002C08AE811C0863F61F002C085E8DF
S1130A600CC08C3F49F009C087E807C089E805C07D
S1130A7084E803C086E801C088E88052813918F50B
S1130A80E82FF0E0CF01880F991F880F991FEA5AC9
S1130A90FF4FE80FF91F40913601CF0105969F01E2
S1130AA02F5F3F4FE491E7FD0CC0483C30F4A42F86
S1130AB0B0E0A559BF4FEC934F5FF90128173907F0
S1130AC071F740933601089583E08ABB8EE787BBB4
S1130AD08EE181BB8BB38C6F8BBB88B3816888BB81
S1130AE082B3816E82BB10BE85E083BF84E086BF83
S1130AF087E28CBF89B7856089BF87E689B912B858
S1130B0080E98AB986E083B90895CF93C82F83FF1B
S1130B1002C085E001C081E06C2F661F6627661F56
S1130B20660FEC2FE077E295F0E0E85CF74F449134
S1130B3040DFC770EC2FF0E0E05DF74FE491E09305
S1130B406500CF910895CF92DF92FF920F931F9388
S1130B50CF93DF931F92CDB7DEB78C0118D2F82E56
S1130B60D4DF37DF680182E0C80ED11CC8010196CA
S1130B700ED2982FE8E0FE2246C086019E37B1F4DB
S1130B800F5F1F4FC60103D28E3771F0E82FE15477
S1130B90E53150F5F0E0EE0FFF1FEA5DFC4F2591C3
S1130BA03491C9012BDF20C08EE71DC09F3F81F423
S1130BB00F5F1F4FC601EBD108C034DF6801FFEFA0
S1130BC0CF1ADF0AC801E3D186018F3FB1F70CC009
S1130BD09E3541F40F5F1F4FC601D9D1982F8E3532
S1130BE009F0915C892F2BDF68018FEFC81AD80AAE
S1130BF0C801CDD1982FF11006C0882331F080E0D0
S1130C00998310DF99819111B8CFC601C0D18111A8
S1130C1004C080E0C82E80E0D82EC6010F90DF917A
S1130C20CF911F910F91FF90DF90CF900895D1DE67
S1130C302FEF84E39CE0215080409040E1F700C016
S1130C40000080E18ABF90E495B98BBF85B78065C9
S1130C5085BF85B7806285BF889585B78F7D85BF41
S1130C601BBE83E8ECDE2FE78AE196E0215080404A
S1130C709040E1F700C0000080E090E064DF9093D2
S1130C8063008093620008951FDFB2DE7894CFDFA3
S1130C908091640080688093640080916400811175
S1130CA00EC080916200909163004DDF90936300C9
S1130CB080936200809164008068809364008091D6
S1130CC06400833051F785DE82E8B9DE2FE78AE1DC
S1130CD096E0215080409040E1F700C00000D7CF5B
S1130CE01F920F920FB60F9211242F933F934F939D
S1130CF05F936F937F938F939F93AF93BF93EF9380
S1130D00FF9386B78C5F86BFB7DDFF91EF91BF91EC
S1130D10AF919F918F917F916F915F914F913F918F
S1130D202F910F900FBE0F901F9018951F920F9246
S1130D300FB60F9211242F933F934F935F936F93AA
S1130D407F938F939F93AF93BF93EF93FF938CB74E
S1130D50895D8CBF80916600882321F08150809347
S1130D60660005C08091650080936600EADD869B7D
S1130D7008C08091640080FF1CC0809164008E775D
S1130D8012C08091640080FD05C081E080936400FE
S1130D9084E60DC080916400813059F4809168002C
S1130DA0811104C083E08093640003C08150809368
S1130DB06800FF91EF91BF91AF919F918F917F91C7
S1130DC06F915F914F913F912F910F900FBE0F90B4
S1130DD01F9018951F920F920FB60F9211240F9027
S1130DE00FBE0F901F9018951F920F920FB60F927F
S1130DF011242F933F934F935F936F937F938F931C
S1130E009F93AF93BF93CF93EF93FF935C99ADC040
S1130E10CCB1CB3119F482E08093690080916900F0
S1130E20863018F0D6DD8C2F0ADEE0916900F0E000
S1130E30EA30F10508F099C0EB5EFF4F0994C8341D
S1130E40B1F481E08AC0CC3409F486C0C43479F4A6
S1130E5083E083C080E090E090936300809362001D
S1130E609093610080936000B4DD81E8E8DD109226
S1130E7069007BC0AEDD8C2F48DE0FC0CD3011F091
S1130E80CA3009F4A6DDCF3F11F485E066C08C2F8B
S1130E90D6DD80E005C0CF3F11F484E05EC08C2F26
S1130EA0C1DD63C0CD3011F0CA3081F4809160009F
S1130EB090916100AC014F5F5F4F5093610040938C
S1130EC0600060E06CD087E080936900CE3511F457
S1130ED088E043C0C43221F410926A0089E03DC026
S1130EE0C03208F442C011C0CE3571F48091600064
S1130EF090916100AC014F5F5F4F5093610040934C
S1130F0060006EE54CD001C0C15C8091600090919E
S1130F106100AC014F5F5F4F5093610040936000EC
S1130F206C2F19C0C43221F4C0936A00C0E203C01C
S1130F30C13408F0C750C05360916A00C03180F0DA
S1130F4080916000909161009C012F5F3F4F30932E
S1130F5061002093600023D086E08093690005C07F
S1130F606295607F6C0F60936A00FF91EF91CF915F
S1130F70BF91AF919F918F917F916F915F914F91AD
S1130F803F912F910F900FBE0F901F901895E199EC
S1130F90FECF1FBA8EBBE09A99278DB30895262FF2
S1130FA0E199FECF1CBA1FBA8EBB2DBB0FB6F894C5
S1110FB0E29AE19A0FBE01960895F894FFCFDD
S10B0FBE00000000800801009E
S9030000FC
