:1000000030C44AC449C448C447C446C445C4FDC6F4
:1000100043C442C441C440C43FC473C698C63CC430
:100020003BC43AC439C438C4E6C61AC71DC723C77F
:1000300032C735C741C747C75AC767C784C7020415
:100040000810010202010102010000021004084030
:1000500020020201010100000080805F808080801A
:100060000300038080147F147F14242A7F2A122324
:1000700013086462364956205005038080801C2294
:1000800041808041221C808022146B142208083E8B
:1000900008085030808080080808088060608080F0
:1000A0008060100804033E41413E80427F408080D2
:1000B000625149468022414936801814127F8027B8
:1000C000454539803C4A49318001710D03803649EC
:1000D0004936800649291E80363680808056368013
:1000E00080800814224180141414148041221408C2
:1000F000800251090680324979413E7E09097E809D
:100100007F494936803E414122807F41413E807F88
:10011000494941807F090901803E49493A807F0869
:10012000087F80417F4180802040403F807F0814CD
:1001300063807F404040807F020C027F7F06187FF3
:10014000803E41413E807F090906803E41215E801C
:100150007F09196680264949328001017F01013FEC
:1001600040403F8007186018073F4038403F631405
:10017000081463030478040361594543807F4141B7
:100180008080030408106041417F8080020102806A
:100190008040404040800304808080205454788018
:1001A0007F4848308038444428803844447F803831
:1001B00054544880047E05018048545438807F0898
:1001C0000870807A8080808020403A80807F081488
:1001D0006280417F4080807C047804787C040478CD
:1001E0008038444438807C242418801824247C805F
:1001F00078040480804854542480043F4444803C64
:1002000040407C800C3040308C3C4030403C4428A6
:100210001028444C50503C8064544C448008364173
:1002200080807F80808080413608808008040810AC
:100230000880808080801C2A4949221F047F40401A
:10024000201210122010222022102154547980797B
:1002500014147980394444398039444439803D400C
:10026000407D803D40403D807E25251A806C1A6F80
:100270001A6C7D5A1E5A7D4E7B0F7B4E7C3A7E3A1D
:100280007C1C762E761C1E347C341E0C1224120C20
:10029000081C3E7F807F3E1C0880303F01627E301C
:1002A0003F0280801E3D777331607E7B7E60205FE1
:1002B0002380807E7A7A7F80034579450310282445
:1002C000281008142A1408000000000036360836EA
:1002D000361E143C287844241D244442241D620107
:1002E00008651C224146241D244C08443D44084C0A
:1002F000241D244601621D620142241D24427C46C5
:1003000057467C7F2A2A7F802A7F417F2A0A005510
:10031000000A30484D33070629792906081C2A08A7
:100320000808082A1C0800089B07720760070507D1
:10033000F506D106BC06B1060606A6058C052705FE
:10034000FE04AD0470040B04D803B9039A037103CF
:100350005203404058646864687048444C484848B8
:100360004848444271495264687070584040404067
:10037000FF1C222E2A1C1C222A2E1C1C222A2A1C6C
:100380001C222A3A1C1C223A2A1C1C322A2A1C1C17
:100390002A2A2A1C1C262A2A1CFF7F7F7F7F7F1C7B
:1003A0001C1C1C1C08080808080808080808000885
:1003B0000808000000080000FF1C3E773E1C3E7746
:1003C00063773E7763416377634108416341081C6B
:1003D0000841081C3E1C08FF40404140404040434B
:1003E00040404040454040404049404040405140EE
:1003F00040404021404040405140404048414840FA
:1004000048404140484040414040FF00027D0000DC
:1004100000017C020000007A000000087204000065
:10042000086010000010680000002040100000006C
:10043000200000000000000000000000000000009C
:1004400000000000300000007C543800793D243D5D
:10045000797B3F163F7B7E7C187C7E7C0810087C75
:10046000700810087060082010601040002000FF25
:100470003F6764246666246F69693F01003C6466D7
:100480002767663C0000213F69692F29292F696988
:100490003F210000203E626223232362623E20004F
:1004A000003C647C243C243C247C643CFF403C4372
:1004B0003C40407C437C40403C433C40407C437C4F
:1004C00040403C433C40407C437C40205E215E20D9
:1004D000106F106F100877087708047B047B040204
:1004E00075027502016801680120502050204010FB
:1004F00020004020004000404000400000FF4040FD
:1005000040404040605048444464544C44446C541F
:100510006C44446C546C7C446C556E7C446E556EDB
:100520007C7C6E556E7CFF40400901000045410017
:100530000003014040000501404000094140000027
:1005400050410100006041010000405101000000E5
:1005500041510000000041490000004141080000F5
:1005600040450100000541400003014040010500F5
:10057000404000090140400010014140002041413D
:100580000000404141000040410100FF2050502048
:100590000030484830000609090600010202010047
:1005A0000001010000FF0300000000030000000044
:1005B0000700000000060200000005060000000C15
:1005C00006000000080E0000000A0C040000080AE3
:1005D0000C000004180C000008101C000000141887
:1005E000080000101418000008301800001020380F
:1005F000000000283010000020283000000000001B
:100600000000202830FF000007000000000E00005E
:1006100000080808001010100000202020000040F2
:1006200043430000404646000040404C0C00404020
:1006300040181840404060600000002020404040CA
:100640006060000107444000020E48400018084C5A
:100650004030101840406020304040602734404017
:100660007E303040407E313340407E323640407EE6
:10067000303644407E30304C487E303050587E30EA
:100680003060705E101040507E303060707C2020F2
:1006900040607C212744607C222E48607C38284CB6
:1006A000607C3B2B4C607C3E2E4C607C3F2F4D6031
:1006B000FF552A552A552A552A552AFF1010101081
:1006C000100810100F7010100808101010101010E3
:1006D000FF002620260000262026000026202600D7
:1006E00000262024000026202600002620260010B8
:1006F00026202610FF00001C0000003E223E007F46
:100700004141417FFF0100000000020001000004A0
:100710000002000008010400011002080002200489
:1007200011000441082200084210440110452048ED
:1007300002204A4050044154406008426841601120
:1007400044704260224870446045507048604A508E
:10075000705060546070606068607060607060FFCE
:100760000844281008040204085030100804040249
:1007700001FF010000000002020100000609090655
:1007800000003048483000205050200030484830A9
:1007900000000609090000000102FF785C6878711A
:1007A0007C38747C7A78506262787C606170687A98
:1007B000603078747079705269607C6870615066DE
:1007C00070782068716072507479706268727030ED
:1007D0006174617850707A74314068441068703484
:1007E00060284A60586060703866186070784219F6
:1007F0005864702970703A7854707051786A70FF3C
:10080000142A49493E001C2A493E003E493E087FC1
:100810002A1C0808221C0808081C000808080008F0
:100820000808080808080800080808000008080068
:1008300000000800000000000000000C0000000C98
:100840001200000C1224000C1224120C1224120CA0
:10085000FF321E120B070503020001020305080DFB
:10086000150011241FBECFE5D1E0DEBFCDBF10E0E3
:10087000A0E6B0E0E0EEFFE002C005900D92A836E1
:10088000B107D9F721E0A8E6B0E001C01D92A93375
:10089000B207E1F70AD2A2C3B3CBCF93DF9300D064
:1008A0001F92CDB7DEB7809134018F5F853018F489
:1008B0008093340102C01092340140913401E091E0
:1008C0003301F0E0E559FF4FE40FF11D208119825B
:1008D0001A821B8280E090E020FF11C0FC01EB5BDC
:1008E000FF4F3491FC01E25CFF4FE491A1E0B0E0E6
:1008F000AC0FBD1FA30FB11D3C913E2B3C93269521
:1009000001968730910541F780E090E0481789F023
:10091000FC01EF5AFF4F2491FC01E45BFF4FE4918F
:10092000A1E0B0E0AC0FBD1FA20FB11D2C912E2B8A
:100930002C9301968530910549F78BB38C7F998173
:10094000892B8BBB88B381789A81892B88BB82B332
:10095000817E9B81892B82BB0F900F900F90DF913E
:10096000CF91089540913501842F8F7050913301BC
:10097000742F707144FF02C0581B01C0580F609162
:100980003601852F90E00496262F30E082179307DA
:10099000ECF080913801882321F081508093380158
:1009A0000AC0809137018093380145FF06C080E17D
:1009B00084278093350181E00895772321F06550E5
:1009C00060933301F8CF10923301F5CF5093330188
:1009D00080E008958F706370613019F040933801A2
:1009E00002C0109238016295682B609335014093E4
:1009F00037010895109233011092360110926B0066
:100A000010926C0010926D0010926E0010926F00A8
:100A10000895F0DF1092350110923701089520916A
:100A200036010EC0FC010196E491EF3F19F42093CA
:100A300036010895A22FB0E0A559BF4FEC932F5F68
:100A4000283C80F3F4CF90913601983C40F4E92F94
:100A5000F0E0E559FF4F80839F5F90933601089542
:100A60008F3D49F0843C61F0863D79F08C3D79F012
:100A7000843E79F002C08AE811C0863F61F002C06E
:100A800085E80CC08C3F49F009C087E807C089E8B9
:100A900005C084E803C086E801C088E88052813937
:100AA00018F5E82FF0E0CF01880F991F880F991FE4
:100AB000EA5AFF4FE80FF91F40913601CF01059622
:100AC0009F012F5F3F4FE491E7FD0CC0483C30F49D
:100AD000A42FB0E0A559BF4FEC934F5FF901281741
:100AE000390771F740933601089583E08ABB8EE79A
:100AF00087BB8EE181BB8BB38C6F8BBB88B3816866
:100B000088BB82B3816E82BB10BE85E083BF84E068
:100B100086BF87E28CBF89B7856089BF87E689B9C0
:100B200012B880E98AB986E083B90895CF93C82FB7
:100B300083FF02C085E001C081E06C2F661F66273D
:100B4000661F660FEC2FE077E295F0E0E75AF74F6B
:100B5000449140DFC770EC2FF0E0EF5AF74FE4917B
:100B6000E0936500CF910895CF92DF92FF920F93AB
:100B70001F93CF93DF931F92CDB7DEB78C0118D2AE
:100B8000F82ED4DF37DF680182E0C80ED11CC8011F
:100B900001960ED2982FE8E0FE2246C086019E37CD
:100BA000B1F40F5F1F4FC60103D28E3771F0E82FEB
:100BB000E154E63150F5F0E0EE0FFF1FEA5DFC4F27
:100BC00025913491C9012BDF20C08EE71DC09F3FC6
:100BD00081F40F5F1F4FC601EBD108C034DF6801FD
:100BE000FFEFCF1ADF0AC801E3D186018F3FB1F7CB
:100BF0000CC09E3541F40F5F1F4FC601D9D1982F0D
:100C00008E3509F0915C892F2BDF68018FEFC81AB0
:100C1000D80AC801CDD1982FF11006C0882331F031
:100C200080E0998310DF99819111B8CFC601C0D1BE
:100C3000811104C080E0C82E80E0D82EC6010F903C
:100C4000DF91CF911F910F91FF90DF90CF9008958A
:100C5000D1DE2FEF84E39CE0215080409040E1F70B
:100C600000C0000080E18ABF90E495B98BBF85B7D2
:100C7000806585BF85B7806285BF889585B78F7D84
:100C800085BF1BBE83E8ECDE2FE78AE196E02150AA
:100C900080409040E1F700C0000080E090E064DF19
:100CA000909363008093620008951FDFB2DE789412
:100CB000CFDF80916400806880936400809164003D
:100CC00081110EC080916200909163004DDF90937E
:100CD0006300809362008091640080688093640068
:100CE00080916400833051F785DE82E8B9DE2FE71A
:100CF0008AE196E0215080409040E1F700C000007A
:100D0000D7CF1F920F920FB60F9211242F933F93BC
:100D10004F935F936F937F938F939F93AF93BF9303
:100D2000EF93FF9386B78C5F86BFB7DDFF91EF919E
:100D3000BF91AF919F918F917F916F915F914F91F3
:100D40003F912F910F900FBE0F901F9018951F92FB
:100D50000F920FB60F9211242F933F934F935F93EF
:100D60006F937F938F939F93AF93BF93EF93FF9373
:100D70008CB7895D8CBF80916600882321F08150FB
:100D80008093660005C08091650080936600EADD6F
:100D9000869B08C08091640080FF1CC08091640025
:100DA0008E7712C08091640080FD05C081E0809341
:100DB000640084E60DC080916400813059F4809114
:100DC0006800811104C083E08093640003C08150F7
:100DD00080936800FF91EF91BF91AF919F918F91A8
:100DE0007F916F915F914F913F912F910F900FBE27
:100DF0000F901F9018951F920F920FB60F9211240B
:100E00000F900FBE0F901F9018951F920F920FB664
:100E10000F9211242F933F934F935F936F937F9380
:100E20008F939F93AF93BF93CF93EF93FF935C996F
:100E3000ADC0CCB1CB3119F482E0809369008091D0
:100E40006900863018F0D6DD8C2F0ADEE09169004B
:100E5000F0E0EA30F10508F099C0EB5EFF4F09942D
:100E6000C834B1F481E08AC0CC3409F486C0C434FB
:100E700079F483E083C080E090E0909363008093F6
:100E800062009093610080936000B4DD81E8E8DD4A
:100E9000109269007BC0AEDD8C2F48DE0FC0CD30D4
:100EA00011F0CA3009F4A6DDCF3F11F485E066C029
:100EB0008C2FD6DD80E005C0CF3F11F484E05EC00A
:100EC0008C2FC1DD63C0CD3011F0CA3081F4809128
:100ED000600090916100AC014F5F5F4F50936100E3
:100EE0004093600060E06CD087E080936900CE356D
:100EF00011F488E043C0C43221F410926A0089E002
:100F00003DC0C03208F442C011C0CE3571F48091AA
:100F1000600090916100AC014F5F5F4F50936100A2
:100F2000409360006EE54CD001C0C15C80916000D0
:100F300090916100AC014F5F5F4F5093610040930F
:100F400060006C2F19C0C43221F4C0936A00C0E263
:100F500003C0C13408F0C750C05360916A00C0316B
:100F600080F080916000909161009C012F5F3F4F65
:100F7000309361002093600023D086E08093690065
:100F800005C06295607F6C0F60936A00FF91EF91DE
:100F9000CF91BF91AF919F918F917F916F915F9111
:100FA0004F913F912F910F900FBE0F901F9018956A
:100FB000E199FECF1FBA8EBBE09A99278DB30895B1
:100FC000262FE199FECF1CBA1FBA8EBB2DBB0FB6E0
:100FD000F894E29AE19A0FBE01960895F894FFCF33
:080FE000000000008008010080
:00000001FF
